:1000000014C02EC02DC02CC02BC00BC229C028C0CC
:1000100027C026C025C024C023C022C021C020C0C4
:100020001FC01EC01DC01CC01BC011241FBECFE5B9
:10003000D2E0DEBFCDBF10E0A0E6B0E0E8E0F6E041
:1000400002C005900D92A836B107D9F710E0A8E6D6
:10005000B0E001C01D92A637B107E1F702D0D2C2CD
:10006000CFCF03D1D2D180E690E068D1789413D27B
:1000700084D2FDCFCF93DF93EC0123E0883E92073B
:1000800008F44AC0FC01E85EF340CF0168EE73E07B
:10009000A5D2EC01CF0168EE73E0A0D26F5C862F91
:1000A00099D1C436D10568F1FE01E456F040CF0184
:1000B00064E670E093D2EC01CF0164E670E08ED28A
:1000C0006F3FF9F0862F8F5C85D1CA30D105D8F00B
:1000D0009E012A503040C9016AE070E07FD2462F6D
:1000E000C9016AE070E07AD2EC014F3F61F0842FE1
:1000F0008F5C70D19E01205D822F6CD1DF91CF91FA
:10010000089580E3E1CF80E365D19E01205D822FD9
:1001100061D1DF91CF91089560E3C1CFCF93DF9399
:10012000EC018436910568F1FC01E456F040CF0102
:1001300064E670E053D2EC01CF0164E670E04ED289
:100140006F3FF9F0862F8F5C45D1CA30D105D8F0CA
:100150009E012A503040C9016AE070E03FD2462F2C
:10016000C9016AE070E03AD2EC014F3F61F0842FA0
:100170008F5C30D19E01205D822F2CD1DF91CF91F9
:10018000089580E3E1CF80E325D19E01205D822F99
:1001900021D1DF91CF9108951F93182F8436E8F075
:1001A000282F2456822F64E60DD2192F822F0AD2CF
:1001B0008F5C10D11A3098F0212F2A50822F6AE0DC
:1001C00001D2382F822FFED1192F3F5C832F02D10D
:1001D000812F805DFFD01F91089580E3EACF30E347
:1001E000F5CF1F93182F8A3088F0282F2A50822F9E
:1001F0006AE0E8D1382F822FE5D1192F3F5C832F99
:10020000E9D0812F805DE6D01F91089530E3F7CFCC
:10021000805DE0D0089595ED9A95F1F7AA9895B391
:10022000807F9F70982B95BBA89A8AE08A95F1F7FA
:10023000A898089595ED9A95F1F7AA9895B3282F67
:10024000207F9F70292B25BBA89A2AE0922F9A9590
:10025000F1F7A898829595B3807F9F70982B95BBF6
:10026000A89A2A95F1F7A898089584B3806F84BB63
:1002700085B3806F85BB84B3876084BB85B387609B
:1002800085BBA99820E931E040E951E0CA01019716
:10029000F1F721503040D1F725ED822F8A95F1F703
:1002A000AA9885B38F70806385BBA89A9AE0892F3E
:1002B0008A95F1F7A898E0E4FCE93197F1F7822FED
:1002C0008A95F1F7AA9885B38F70806385BBA89A49
:1002D000892F8A95F1F7A898E0EAFFE03197F1F7C6
:1002E000822F8A95F1F7AA9885B38F70806385BBBA
:1002F000A89A892F8A95F1F7A8982A95F1F7AA98D4
:1003000085B38F70806285BBA89A9A95F1F7A898FB
:1003100088E290DF88E08EDF8CE08CDF81E08ADF8E
:1003200080E49FE10197F1F786E084DF089581E0A2
:1003300081DF80E49FE10197F1F70895FC01AA9A1B
:100340002081222301F145ED3AE03196842F8A95F0
:10035000F1F7AA9A85B3922F907F8F70982B95BB57
:10036000A89A832F8A95F1F7A898229585B3207FC4
:100370008F70282B25BBA89A832F8A95F1F7A89810
:100380002081222311F70895FC018491882309F12B
:10039000282F45ED3AE0842F8A95F1F7AA9A85B384
:1003A000922F907F8F70982B95BBA89A832F8A9558
:1003B000F1F7A898229585B3207F8F70822B85BB9B
:1003C000A89A832F8A95F1F7A89831962491222331
:1003D00011F7089595ED9A95F1F7AA9A95B3282FFC
:1003E000207F9F70292B25BBA89A2AE0922F9A95EF
:1003F000F1F7A898829595B3807F9F70982B95BB55
:10040000A89A2A95F1F7A89808958E98969A80E26E
:1004100089BF1FBC83E08EBD1DBC1CBC10926C004C
:1004200008951F920F920FB60F9211248F939F93EE
:1004300080916A0090916B009093690080936800AE
:1004400086B597B590936B0080936A0080916D009C
:10045000816080936D009F918F910F900FBE0F90E0
:100460001F901895F89480916800909169004091D0
:100470006A0050916B0078948417950738F09C01BE
:1004800020953095240F351FC90108959A01281B26
:10049000390BC901089580916D0080FF2CC0F8943C
:1004A000809168009091690020916A0030916B0002
:1004B00078948217930700F180959095820F931F8F
:1004C00020916C00222301F55EE0863A950770F4D6
:1004D000895B9B4098F11092700010926F0010920F
:1004E0006E001092750081E080936C0080916D0029
:1004F0008E7F80936D000895A901481B590BCA0196
:1005000020916C00222301F3213081F742E08E3EDE
:10051000940760F78857914068F49091700080913B
:100520006F008F5F80936F00883071F09695909385
:100530007000DCCF909170009068F1CF80917500D1
:100540008F5F80937500D2CF80916E00E82FF0E02E
:10055000EF58FF4F908310926F0090E01092700060
:100560008F5F80936E00843009F780916D00826008
:1005700080936D0010926C00B9CF80916D0081FF67
:100580001BC080E857DE8091710006DE80E222DF2A
:100590008091720001DE80E21DDF80917300FCDD3E
:1005A00080E218DF80917400F7DD80E213DF809134
:1005B0006D008D7F80936D0080EC3CDE8091750036
:1005C000EBDD0895991B79E004C0991F961708F098
:1005D000961B881F7A95C9F780950895AA1BBB1BA7
:1005E00051E107C0AA1FBB1FA617B70710F0A61B33
:1005F000B70B881F991F5A95A9F780959095BC0154
:08060000CD010895F894FFCF2D
:0806080077696E617672000053
:00000001FF
